{
  "contractName": "GrantsDAO",
  "abi": [
    {
      "inputs": [
        {
          "internalType": "address",
          "name": "_snx",
          "type": "address"
        },
        {
          "internalType": "address[]",
          "name": "_teamMembers",
          "type": "address[]"
        },
        {
          "internalType": "address[]",
          "name": "_communityMembers",
          "type": "address[]"
        },
        {
          "internalType": "uint256",
          "name": "_toPass",
          "type": "uint256"
        }
      ],
      "payable": false,
      "stateMutability": "nonpayable",
      "type": "constructor"
    },
    {
      "anonymous": false,
      "inputs": [
        {
          "indexed": false,
          "internalType": "uint256",
          "name": "proposalNumber",
          "type": "uint256"
        }
      ],
      "name": "DeleteProposal",
      "type": "event"
    },
    {
      "anonymous": false,
      "inputs": [
        {
          "indexed": false,
          "internalType": "address",
          "name": "receiver",
          "type": "address"
        },
        {
          "indexed": false,
          "internalType": "uint256",
          "name": "amount",
          "type": "uint256"
        }
      ],
      "name": "ExecuteProposal",
      "type": "event"
    },
    {
      "anonymous": false,
      "inputs": [
        {
          "indexed": false,
          "internalType": "address",
          "name": "receiver",
          "type": "address"
        },
        {
          "indexed": false,
          "internalType": "uint256",
          "name": "amount",
          "type": "uint256"
        },
        {
          "indexed": false,
          "internalType": "uint256",
          "name": "proposalNumber",
          "type": "uint256"
        }
      ],
      "name": "NewProposal",
      "type": "event"
    },
    {
      "anonymous": false,
      "inputs": [
        {
          "indexed": false,
          "internalType": "uint256",
          "name": "proposal",
          "type": "uint256"
        },
        {
          "indexed": false,
          "internalType": "address",
          "name": "member",
          "type": "address"
        },
        {
          "indexed": false,
          "internalType": "bool",
          "name": "vote",
          "type": "bool"
        }
      ],
      "name": "VoteProposal",
      "type": "event"
    },
    {
      "constant": true,
      "inputs": [],
      "name": "SNX",
      "outputs": [
        {
          "internalType": "contract IERC20",
          "name": "",
          "type": "address"
        }
      ],
      "payable": false,
      "stateMutability": "view",
      "type": "function"
    },
    {
      "constant": true,
      "inputs": [],
      "name": "SUBMISSION_PHASE",
      "outputs": [
        {
          "internalType": "uint256",
          "name": "",
          "type": "uint256"
        }
      ],
      "payable": false,
      "stateMutability": "view",
      "type": "function"
    },
    {
      "constant": true,
      "inputs": [],
      "name": "VOTING_PHASE",
      "outputs": [
        {
          "internalType": "uint256",
          "name": "",
          "type": "uint256"
        }
      ],
      "payable": false,
      "stateMutability": "view",
      "type": "function"
    },
    {
      "constant": true,
      "inputs": [
        {
          "internalType": "address",
          "name": "",
          "type": "address"
        }
      ],
      "name": "communityMembers",
      "outputs": [
        {
          "internalType": "bool",
          "name": "",
          "type": "bool"
        }
      ],
      "payable": false,
      "stateMutability": "view",
      "type": "function"
    },
    {
      "constant": true,
      "inputs": [],
      "name": "counter",
      "outputs": [
        {
          "internalType": "uint256",
          "name": "",
          "type": "uint256"
        }
      ],
      "payable": false,
      "stateMutability": "view",
      "type": "function"
    },
    {
      "constant": true,
      "inputs": [],
      "name": "locked",
      "outputs": [
        {
          "internalType": "uint256",
          "name": "",
          "type": "uint256"
        }
      ],
      "payable": false,
      "stateMutability": "view",
      "type": "function"
    },
    {
      "constant": true,
      "inputs": [],
      "name": "members",
      "outputs": [
        {
          "internalType": "uint256",
          "name": "",
          "type": "uint256"
        }
      ],
      "payable": false,
      "stateMutability": "view",
      "type": "function"
    },
    {
      "constant": true,
      "inputs": [
        {
          "internalType": "uint256",
          "name": "",
          "type": "uint256"
        }
      ],
      "name": "proposals",
      "outputs": [
        {
          "internalType": "bool",
          "name": "teamApproval",
          "type": "bool"
        },
        {
          "internalType": "address",
          "name": "receiver",
          "type": "address"
        },
        {
          "internalType": "uint256",
          "name": "amount",
          "type": "uint256"
        },
        {
          "internalType": "uint256",
          "name": "createdAt",
          "type": "uint256"
        },
        {
          "internalType": "uint256",
          "name": "approvals",
          "type": "uint256"
        }
      ],
      "payable": false,
      "stateMutability": "view",
      "type": "function"
    },
    {
      "constant": true,
      "inputs": [
        {
          "internalType": "address",
          "name": "",
          "type": "address"
        }
      ],
      "name": "teamMembers",
      "outputs": [
        {
          "internalType": "bool",
          "name": "",
          "type": "bool"
        }
      ],
      "payable": false,
      "stateMutability": "view",
      "type": "function"
    },
    {
      "constant": true,
      "inputs": [],
      "name": "toPass",
      "outputs": [
        {
          "internalType": "uint256",
          "name": "",
          "type": "uint256"
        }
      ],
      "payable": false,
      "stateMutability": "view",
      "type": "function"
    },
    {
      "constant": false,
      "inputs": [
        {
          "internalType": "address",
          "name": "_receiver",
          "type": "address"
        },
        {
          "internalType": "uint256",
          "name": "_amount",
          "type": "uint256"
        }
      ],
      "name": "createProposal",
      "outputs": [
        {
          "internalType": "uint256",
          "name": "",
          "type": "uint256"
        }
      ],
      "payable": false,
      "stateMutability": "nonpayable",
      "type": "function"
    },
    {
      "constant": false,
      "inputs": [
        {
          "internalType": "uint256",
          "name": "_proposal",
          "type": "uint256"
        },
        {
          "internalType": "bool",
          "name": "_vote",
          "type": "bool"
        }
      ],
      "name": "voteProposal",
      "outputs": [],
      "payable": false,
      "stateMutability": "nonpayable",
      "type": "function"
    },
    {
      "constant": false,
      "inputs": [
        {
          "internalType": "uint256",
          "name": "_proposal",
          "type": "uint256"
        }
      ],
      "name": "deleteProposal",
      "outputs": [],
      "payable": false,
      "stateMutability": "nonpayable",
      "type": "function"
    },
    {
      "constant": false,
      "inputs": [
        {
          "internalType": "address",
          "name": "_receiver",
          "type": "address"
        },
        {
          "internalType": "uint256",
          "name": "_amount",
          "type": "uint256"
        }
      ],
      "name": "withdraw",
      "outputs": [],
      "payable": false,
      "stateMutability": "nonpayable",
      "type": "function"
    },
    {
      "constant": false,
      "inputs": [
        {
          "internalType": "address",
          "name": "_member",
          "type": "address"
        }
      ],
      "name": "addCommunityMember",
      "outputs": [],
      "payable": false,
      "stateMutability": "nonpayable",
      "type": "function"
    },
    {
      "constant": false,
      "inputs": [
        {
          "internalType": "address",
          "name": "_member",
          "type": "address"
        },
        {
          "internalType": "uint256[]",
          "name": "_proposals",
          "type": "uint256[]"
        }
      ],
      "name": "removeCommunityMember",
      "outputs": [],
      "payable": false,
      "stateMutability": "nonpayable",
      "type": "function"
    },
    {
      "constant": false,
      "inputs": [
        {
          "internalType": "address",
          "name": "_member",
          "type": "address"
        }
      ],
      "name": "addTeamMember",
      "outputs": [],
      "payable": false,
      "stateMutability": "nonpayable",
      "type": "function"
    },
    {
      "constant": false,
      "inputs": [
        {
          "internalType": "address",
          "name": "_member",
          "type": "address"
        }
      ],
      "name": "removeTeamMember",
      "outputs": [],
      "payable": false,
      "stateMutability": "nonpayable",
      "type": "function"
    },
    {
      "constant": true,
      "inputs": [],
      "name": "withdrawable",
      "outputs": [
        {
          "internalType": "uint256",
          "name": "",
          "type": "uint256"
        }
      ],
      "payable": false,
      "stateMutability": "view",
      "type": "function"
    },
    {
      "constant": true,
      "inputs": [
        {
          "internalType": "address",
          "name": "_member",
          "type": "address"
        },
        {
          "internalType": "uint256",
          "name": "_proposal",
          "type": "uint256"
        }
      ],
      "name": "voted",
      "outputs": [
        {
          "internalType": "bool",
          "name": "",
          "type": "bool"
        }
      ],
      "payable": false,
      "stateMutability": "view",
      "type": "function"
    },
    {
      "constant": true,
      "inputs": [
        {
          "internalType": "uint256",
          "name": "_proposal",
          "type": "uint256"
        }
      ],
      "name": "votingPhase",
      "outputs": [
        {
          "internalType": "bool",
          "name": "",
          "type": "bool"
        }
      ],
      "payable": false,
      "stateMutability": "view",
      "type": "function"
    }
  ],
  "bytecode": "0x6080604052600180553480156200001557600080fd5b506040516200292c3803806200292c833981810160405260808110156200003b57600080fd5b8101908080519060200190929190805160405193929190846401000000008211156200006657600080fd5b838201915060208201858111156200007d57600080fd5b82518660208202830111640100000000821117156200009b57600080fd5b8083526020830192505050908051906020019060200280838360005b83811015620000d4578082015181840152602081019050620000b7565b5050505090500160405260200180516040519392919084640100000000821115620000fe57600080fd5b838201915060208201858111156200011557600080fd5b82518660208202830111640100000000821117156200013357600080fd5b8083526020830192505050908051906020019060200280838360005b838110156200016c5780820151818401526020810190506200014f565b50505050905001604052602001805190602001909291905050506000835111620001fe576040517f08c379a000000000000000000000000000000000000000000000000000000000815260040180806020018281038252601c8152602001807f4e656564206174206c65617374206f6e65207465616d4d656d6265720000000081525060200191505060405180910390fd5b815183510181111562000279576040517f08c379a000000000000000000000000000000000000000000000000000000000815260040180806020018281038252601f8152602001807f496e76616c69642076616c756520746f20706173732070726f706f73616c730081525060200191505060405180910390fd5b60008090505b835181101562000315576001600660008684815181106200029c57fe5b602002602001015173ffffffffffffffffffffffffffffffffffffffff1673ffffffffffffffffffffffffffffffffffffffff16815260200190815260200160002060006101000a81548160ff02191690831515021790555060026000815480929190600101919050555080806001019150506200027f565b5060008090505b8251811015620003b2576001600760008584815181106200033957fe5b602002602001015173ffffffffffffffffffffffffffffffffffffffff1673ffffffffffffffffffffffffffffffffffffffff16815260200190815260200160002060006101000a81548160ff02191690831515021790555060026000815480929190600101919050555080806001019150506200031c565b508060008190555083600460006101000a81548173ffffffffffffffffffffffffffffffffffffffff021916908373ffffffffffffffffffffffffffffffffffffffff1602179055505050505061251d806200040f6000396000f3fe608060405234801561001057600080fd5b5060043610610154576000357c0100000000000000000000000000000000000000000000000000000000900480638c95aef9116100d5578063c591aa9811610099578063c591aa981461050a578063c836292b14610570578063cf309012146105cc578063dfc51a25146105ea578063e8d6101e1461064c578063f3fef3a31461069657610154565b80638c95aef91461039f578063af25180a146103fb578063bcfb9b6114610494578063bd5101f8146104ce578063bdd4d18d146104ec57610154565b8063501883011161011c57806350188301146102d35780635c627358146102f157806361bc221a146103355780637888a26d146103535780638259d5531461037157610154565b8063013cf08b1461015957806314eba026146101e75780631d5b7e731461022b5780633eb2b5ad146102495780633f80d9521461028d575b600080fd5b6101856004803603602081101561016f57600080fd5b81019080803590602001909291905050506106e4565b60405180861515151581526020018573ffffffffffffffffffffffffffffffffffffffff1673ffffffffffffffffffffffffffffffffffffffff1681526020018481526020018381526020018281526020019550505050505060405180910390f35b610229600480360360208110156101fd57600080fd5b81019080803573ffffffffffffffffffffffffffffffffffffffff169060200190929190505050610747565b005b6102336108fa565b6040518082815260200191505060405180910390f35b61028b6004803603602081101561025f57600080fd5b81019080803573ffffffffffffffffffffffffffffffffffffffff169060200190929190505050610901565b005b6102b9600480360360208110156102a357600080fd5b8101908080359060200190929190505050610a1b565b604051808215151515815260200191505060405180910390f35b6102db610a79565b6040518082815260200191505060405180910390f35b6103336004803603602081101561030757600080fd5b81019080803573ffffffffffffffffffffffffffffffffffffffff169060200190929190505050610b8a565b005b61033d610ca4565b6040518082815260200191505060405180910390f35b61035b610caa565b6040518082815260200191505060405180910390f35b61039d6004803603602081101561038757600080fd5b8101908080359060200190929190505050610cb1565b005b6103e1600480360360208110156103b557600080fd5b81019080803573ffffffffffffffffffffffffffffffffffffffff169060200190929190505050610e70565b604051808215151515815260200191505060405180910390f35b6104926004803603604081101561041157600080fd5b81019080803573ffffffffffffffffffffffffffffffffffffffff1690602001909291908035906020019064010000000081111561044e57600080fd5b82018360208201111561046057600080fd5b8035906020019184602083028401116401000000008311171561048257600080fd5b9091929391929390505050610e90565b005b6104cc600480360360408110156104aa57600080fd5b8101908080359060200190929190803515159060200190929190505050611184565b005b6104d6611657565b6040518082815260200191505060405180910390f35b6104f461165d565b6040518082815260200191505060405180910390f35b6105566004803603604081101561052057600080fd5b81019080803573ffffffffffffffffffffffffffffffffffffffff16906020019092919080359060200190929190505050611663565b604051808215151515815260200191505060405180910390f35b6105b26004803603602081101561058657600080fd5b81019080803573ffffffffffffffffffffffffffffffffffffffff1690602001909291905050506116ce565b604051808215151515815260200191505060405180910390f35b6105d46116ee565b6040518082815260200191505060405180910390f35b6106366004803603604081101561060057600080fd5b81019080803573ffffffffffffffffffffffffffffffffffffffff169060200190929190803590602001909291905050506116f4565b6040518082815260200191505060405180910390f35b610654611d2a565b604051808273ffffffffffffffffffffffffffffffffffffffff1673ffffffffffffffffffffffffffffffffffffffff16815260200191505060405180910390f35b6106e2600480360360408110156106ac57600080fd5b81019080803573ffffffffffffffffffffffffffffffffffffffff16906020019092919080359060200190929190505050611d50565b005b60056020528060005260406000206000915090508060000160009054906101000a900460ff16908060000160019054906101000a900473ffffffffffffffffffffffffffffffffffffffff16908060010154908060020154908060030154905085565b600660003373ffffffffffffffffffffffffffffffffffffffff1673ffffffffffffffffffffffffffffffffffffffff16815260200190815260200160002060009054906101000a900460ff16610806576040517f08c379a000000000000000000000000000000000000000000000000000000000815260040180806020018281038252600f8152602001807f4e6f74207465616d206d656d626572000000000000000000000000000000000081525060200191505060405180910390fd5b8073ffffffffffffffffffffffffffffffffffffffff163373ffffffffffffffffffffffffffffffffffffffff1614156108a8576040517f08c379a00000000000000000000000000000000000000000000000000000000081526004018080602001828103825260128152602001807f43616e6e6f742072656d6f76652073656c66000000000000000000000000000081525060200191505060405180910390fd5b600660008273ffffffffffffffffffffffffffffffffffffffff1673ffffffffffffffffffffffffffffffffffffffff16815260200190815260200160002060006101000a81549060ff021916905550565b6202a30081565b600660003373ffffffffffffffffffffffffffffffffffffffff1673ffffffffffffffffffffffffffffffffffffffff16815260200190815260200160002060009054906101000a900460ff166109c0576040517f08c379a000000000000000000000000000000000000000000000000000000000815260040180806020018281038252600f8152602001807f4e6f74207465616d206d656d626572000000000000000000000000000000000081525060200191505060405180910390fd5b6001600660008373ffffffffffffffffffffffffffffffffffffffff1673ffffffffffffffffffffffffffffffffffffffff16815260200190815260200160002060006101000a81548160ff02191690831515021790555050565b60008060056000848152602001908152602001600020600201549050610a4d6202a30042611f9690919063ffffffff16565b8111158015610a715750610a6d620bdd8082611fe090919063ffffffff16565b4211155b915050919050565b6000610b85600354600460009054906101000a900473ffffffffffffffffffffffffffffffffffffffff1673ffffffffffffffffffffffffffffffffffffffff166370a08231306040518263ffffffff167c0100000000000000000000000000000000000000000000000000000000028152600401808273ffffffffffffffffffffffffffffffffffffffff1673ffffffffffffffffffffffffffffffffffffffff16815260200191505060206040518083038186803b158015610b3c57600080fd5b505afa158015610b50573d6000803e3d6000fd5b505050506040513d6020811015610b6657600080fd5b8101908080519060200190929190505050611f9690919063ffffffff16565b905090565b600660003373ffffffffffffffffffffffffffffffffffffffff1673ffffffffffffffffffffffffffffffffffffffff16815260200190815260200160002060009054906101000a900460ff16610c49576040517f08c379a000000000000000000000000000000000000000000000000000000000815260040180806020018281038252600f8152602001807f4e6f74207465616d206d656d626572000000000000000000000000000000000081525060200191505060405180910390fd5b6001600760008373ffffffffffffffffffffffffffffffffffffffff1673ffffffffffffffffffffffffffffffffffffffff16815260200190815260200160002060006101000a81548160ff02191690831515021790555050565b60015481565b620bdd8081565b600660003373ffffffffffffffffffffffffffffffffffffffff1673ffffffffffffffffffffffffffffffffffffffff16815260200190815260200160002060009054906101000a900460ff1680610d525750600760003373ffffffffffffffffffffffffffffffffffffffff1673ffffffffffffffffffffffffffffffffffffffff16815260200190815260200160002060009054906101000a900460ff165b610dc4576040517f08c379a000000000000000000000000000000000000000000000000000000000815260040180806020018281038252600c8152602001807f4e6f742070726f706f736572000000000000000000000000000000000000000081525060200191505060405180910390fd5b610df0620bdd806005600084815260200190815260200160002060020154611fe090919063ffffffff16565b4211610e64576040517f08c379a00000000000000000000000000000000000000000000000000000000081526004018080602001828103825260148152602001807f50726f706f73616c206e6f74206578706972656400000000000000000000000081525060200191505060405180910390fd5b610e6d81612068565b50565b60076020528060005260406000206000915054906101000a900460ff1681565b600660003373ffffffffffffffffffffffffffffffffffffffff1673ffffffffffffffffffffffffffffffffffffffff16815260200190815260200160002060009054906101000a900460ff16610f4f576040517f08c379a000000000000000000000000000000000000000000000000000000000815260040180806020018281038252600f8152602001807f4e6f74207465616d206d656d626572000000000000000000000000000000000081525060200191505060405180910390fd5b600760008473ffffffffffffffffffffffffffffffffffffffff1673ffffffffffffffffffffffffffffffffffffffff16815260200190815260200160002060006101000a81549060ff021916905560008090505b8282905081101561117e5760056000848484818110610fbf57fe5b90506020020135815260200190815260200160002060040160008573ffffffffffffffffffffffffffffffffffffffff1673ffffffffffffffffffffffffffffffffffffffff16815260200190815260200160002060009054906101000a900460ff16611094576040517f08c379a00000000000000000000000000000000000000000000000000000000081526004018080602001828103825260208152602001807f4d656d62657220646964206e6f7420766f746520666f722070726f706f73616c81525060200191505060405180910390fd5b600560008484848181106110a457fe5b90506020020135815260200190815260200160002060040160008573ffffffffffffffffffffffffffffffffffffffff1673ffffffffffffffffffffffffffffffffffffffff16815260200190815260200160002060006101000a81549060ff021916905561114560016005600086868681811061111e57fe5b90506020020135815260200190815260200160002060030154611f9690919063ffffffff16565b6005600085858581811061115557fe5b905060200201358152602001908152602001600020600301819055508080600101915050610fa4565b50505050565b600660003373ffffffffffffffffffffffffffffffffffffffff1673ffffffffffffffffffffffffffffffffffffffff16815260200190815260200160002060009054906101000a900460ff16806112255750600760003373ffffffffffffffffffffffffffffffffffffffff1673ffffffffffffffffffffffffffffffffffffffff16815260200190815260200160002060009054906101000a900460ff165b611297576040517f08c379a000000000000000000000000000000000000000000000000000000000815260040180806020018281038252600c8152602001807f4e6f742070726f706f736572000000000000000000000000000000000000000081525060200191505060405180910390fd5b6112a082610a1b565b611312576040517f08c379a000000000000000000000000000000000000000000000000000000000815260040180806020018281038252601c8152602001807f50726f706f73616c206e6f7420696e20766f74696e672070686173650000000081525060200191505060405180910390fd5b6005600083815260200190815260200160002060040160003373ffffffffffffffffffffffffffffffffffffffff1673ffffffffffffffffffffffffffffffffffffffff16815260200190815260200160002060009054906101000a900460ff16156113e6576040517f08c379a000000000000000000000000000000000000000000000000000000000815260040180806020018281038252600d8152602001807f416c726561647920766f7465640000000000000000000000000000000000000081525060200191505060405180910390fd5b60016005600084815260200190815260200160002060040160003373ffffffffffffffffffffffffffffffffffffffff1673ffffffffffffffffffffffffffffffffffffffff16815260200190815260200160002060006101000a81548160ff021916908315150217905550801561157a57600660003373ffffffffffffffffffffffffffffffffffffffff1673ffffffffffffffffffffffffffffffffffffffff16815260200190815260200160002060009054906101000a900460ff16156114da5760016005600084815260200190815260200160002060000160006101000a81548160ff0219169083151502179055505b61150460016005600085815260200190815260200160002060030154611fe090919063ffffffff16565b600560008481526020019081526020016000206003018190555060005460056000848152602001908152602001600020600301541015801561156657506005600083815260200190815260200160002060000160009054906101000a900460ff165b15611575576115748261213c565b5b6115db565b600660003373ffffffffffffffffffffffffffffffffffffffff1673ffffffffffffffffffffffffffffffffffffffff16815260200190815260200160002060009054906101000a900460ff16156115da576115d582612068565b611653565b5b7f1c076051e65699422562af80dc299053856695c24ba29b4d03628be79bd19cf4823383604051808481526020018373ffffffffffffffffffffffffffffffffffffffff1673ffffffffffffffffffffffffffffffffffffffff16815260200182151515158152602001935050505060405180910390a15b5050565b60005481565b60025481565b60006005600083815260200190815260200160002060040160008473ffffffffffffffffffffffffffffffffffffffff1673ffffffffffffffffffffffffffffffffffffffff16815260200190815260200160002060009054906101000a900460ff16905092915050565b60066020528060005260406000206000915054906101000a900460ff1681565b60035481565b6000600660003373ffffffffffffffffffffffffffffffffffffffff1673ffffffffffffffffffffffffffffffffffffffff16815260200190815260200160002060009054906101000a900460ff16806117975750600760003373ffffffffffffffffffffffffffffffffffffffff1673ffffffffffffffffffffffffffffffffffffffff16815260200190815260200160002060009054906101000a900460ff165b611809576040517f08c379a000000000000000000000000000000000000000000000000000000000815260040180806020018281038252600c8152602001807f4e6f742070726f706f736572000000000000000000000000000000000000000081525060200191505060405180910390fd5b6000821161187f576040517f08c379a000000000000000000000000000000000000000000000000000000000815260040180806020018281038252601d8152602001807f416d6f756e74206d7573742062652067726561746572207468616e203000000081525060200191505060405180910390fd5b600073ffffffffffffffffffffffffffffffffffffffff168373ffffffffffffffffffffffffffffffffffffffff161415611922576040517f08c379a000000000000000000000000000000000000000000000000000000000815260040180806020018281038252601f8152602001807f52656365697665722063616e6e6f74206265207a65726f20616464726573730081525060200191505060405180910390fd5b6000611a2e600354600460009054906101000a900473ffffffffffffffffffffffffffffffffffffffff1673ffffffffffffffffffffffffffffffffffffffff166370a08231306040518263ffffffff167c0100000000000000000000000000000000000000000000000000000000028152600401808273ffffffffffffffffffffffffffffffffffffffff1673ffffffffffffffffffffffffffffffffffffffff16815260200191505060206040518083038186803b1580156119e557600080fd5b505afa1580156119f9573d6000803e3d6000fd5b505050506040513d6020811015611a0f57600080fd5b8101908080519060200190929190505050611f9690919063ffffffff16565b905080831115611aa6576040517f08c379a00000000000000000000000000000000000000000000000000000000081526004018080602001828103825260188152602001807f556e617661696c61626c652066756e6473206f6e2044414f000000000000000081525060200191505060405180910390fd5b60006001549050611ac1600182611fe090919063ffffffff16565b6001819055506040518060a001604052806000151581526020018673ffffffffffffffffffffffffffffffffffffffff16815260200185815260200142815260200160018152506005600083815260200190815260200160002060008201518160000160006101000a81548160ff02191690831515021790555060208201518160000160016101000a81548173ffffffffffffffffffffffffffffffffffffffff021916908373ffffffffffffffffffffffffffffffffffffffff160217905550604082015181600101556060820151816002015560808201518160030155905050600660003373ffffffffffffffffffffffffffffffffffffffff1673ffffffffffffffffffffffffffffffffffffffff16815260200190815260200160002060009054906101000a900460ff1615611c255760016005600083815260200190815260200160002060000160006101000a81548160ff0219169083151502179055505b611c3a84600354611fe090919063ffffffff16565b60038190555060016005600083815260200190815260200160002060040160003373ffffffffffffffffffffffffffffffffffffffff1673ffffffffffffffffffffffffffffffffffffffff16815260200190815260200160002060006101000a81548160ff0219169083151502179055507f7bf352ba24249a94adb0618fb9a979f326660385774ed92388e949525e871d27858583604051808473ffffffffffffffffffffffffffffffffffffffff1673ffffffffffffffffffffffffffffffffffffffff168152602001838152602001828152602001935050505060405180910390a1809250505092915050565b600460009054906101000a900473ffffffffffffffffffffffffffffffffffffffff1681565b600660003373ffffffffffffffffffffffffffffffffffffffff1673ffffffffffffffffffffffffffffffffffffffff16815260200190815260200160002060009054906101000a900460ff16611e0f576040517f08c379a000000000000000000000000000000000000000000000000000000000815260040180806020018281038252600f8152602001807f4e6f74207465616d206d656d626572000000000000000000000000000000000081525060200191505060405180910390fd5b611e17610a79565b811115611e8c576040517f08c379a00000000000000000000000000000000000000000000000000000000081526004018080602001828103825260198152602001807f556e61626c6520746f20776974686472617720616d6f756e740000000000000081525060200191505060405180910390fd5b600460009054906101000a900473ffffffffffffffffffffffffffffffffffffffff1673ffffffffffffffffffffffffffffffffffffffff1663a9059cbb83836040518363ffffffff167c0100000000000000000000000000000000000000000000000000000000028152600401808373ffffffffffffffffffffffffffffffffffffffff1673ffffffffffffffffffffffffffffffffffffffff16815260200182815260200192505050602060405180830381600087803b158015611f5157600080fd5b505af1158015611f65573d6000803e3d6000fd5b505050506040513d6020811015611f7b57600080fd5b8101908080519060200190929190505050611f9257fe5b5050565b6000611fd883836040518060400160405280601e81526020017f536166654d6174683a207375627472616374696f6e206f766572666c6f7700008152506123e1565b905092915050565b60008082840190508381101561205e576040517f08c379a000000000000000000000000000000000000000000000000000000000815260040180806020018281038252601b8152602001807f536166654d6174683a206164646974696f6e206f766572666c6f77000000000081525060200191505060405180910390fd5b8091505092915050565b6120936005600083815260200190815260200160002060010154600354611f9690919063ffffffff16565b60038190555060056000828152602001908152602001600020600080820160006101000a81549060ff02191690556000820160016101000a81549073ffffffffffffffffffffffffffffffffffffffff021916905560018201600090556002820160009055600382016000905550507fd601bc18245e20cfc0db666ddd2de3b93b1932c1b00408cfa89afb688cb0db6f816040518082815260200191505060405180910390a150565b6121446124a1565b600560008381526020019081526020016000206040518060a00160405290816000820160009054906101000a900460ff161515151581526020016000820160019054906101000a900473ffffffffffffffffffffffffffffffffffffffff1673ffffffffffffffffffffffffffffffffffffffff1673ffffffffffffffffffffffffffffffffffffffff1681526020016001820154815260200160028201548152602001600382015481525050905060056000838152602001908152602001600020600080820160006101000a81549060ff02191690556000820160016101000a81549073ffffffffffffffffffffffffffffffffffffffff02191690556001820160009055600282016000905560038201600090555050600460009054906101000a900473ffffffffffffffffffffffffffffffffffffffff1673ffffffffffffffffffffffffffffffffffffffff1663a9059cbb826020015183604001516040518363ffffffff167c0100000000000000000000000000000000000000000000000000000000028152600401808373ffffffffffffffffffffffffffffffffffffffff1673ffffffffffffffffffffffffffffffffffffffff16815260200182815260200192505050602060405180830381600087803b15801561232957600080fd5b505af115801561233d573d6000803e3d6000fd5b505050506040513d602081101561235357600080fd5b810190808051906020019092919050505061236a57fe5b7fb8d301cd5f98b8a684e9fcee3fec6abc97ee218ec8794e9aed3f791e40fb465881602001518260400151604051808373ffffffffffffffffffffffffffffffffffffffff1673ffffffffffffffffffffffffffffffffffffffff1681526020018281526020019250505060405180910390a15050565b600083831115829061248e576040517f08c379a00000000000000000000000000000000000000000000000000000000081526004018080602001828103825283818151815260200191508051906020019080838360005b83811015612453578082015181840152602081019050612438565b50505050905090810190601f1680156124805780820380516001836020036101000a031916815260200191505b509250505060405180910390fd5b5060008385039050809150509392505050565b6040518060a00160405280600015158152602001600073ffffffffffffffffffffffffffffffffffffffff168152602001600081526020016000815260200160008152509056fea265627a7a72315820ff33d3ffeb67013cc0d85c48d587c0def85e88159bdcf69747a64c3c5f4d94e064736f6c634300050d0032",
  "source": "pragma solidity 0.5.13;\n\nimport \"@openzeppelin/contracts/token/ERC20/IERC20.sol\";\nimport \"@openzeppelin/contracts/math/SafeMath.sol\";\n\n/**\n * @title Synthetix Grants DAO\n * @notice This contract allows for grants to be proposed and voted on by community members\n * and the Synthetix team. All proposals must receive at least one approving vote by a\n * Synthetix member before funds will transfer.\n */\ncontract GrantsDAO {\n\n  using SafeMath for uint256;\n\n  uint256 public constant SUBMISSION_PHASE = 2 days;\n  uint256 public constant VOTING_PHASE = 9 days; // for 7 days after the submission phase\n  uint256 public toPass;\n  uint256 public counter = 1;\n  uint256 public members;\n  uint256 public locked;\n\n  IERC20 public SNX;\n\n  struct Proposal {\n    bool teamApproval;\n    address receiver;\n    uint256 amount;\n    uint256 createdAt;\n    uint256 approvals;\n    mapping(address => bool) voted;\n  }\n\n  mapping(uint256 => Proposal) public proposals;\n  mapping(address => bool) public teamMembers;\n  mapping(address => bool) public communityMembers;\n\n  event NewProposal(address receiver, uint256 amount, uint256 proposalNumber);\n  event VoteProposal(uint256 proposal, address member, bool vote);\n  event ExecuteProposal(address receiver, uint256 amount);\n  event DeleteProposal(uint256 proposalNumber);\n\n  /**\n   * @notice Contract is created with an initial array of team and community members\n   * which will be stored in mappings\n   * @param _snx The address of the SNX token\n   * @param _teamMembers An array of addresses for the team members\n   * @param _communityMembers An array of addresses for the community members\n   * @param _toPass The number of votes each proposal is required in order to execute\n   */\n  constructor(\n    address _snx,\n    address[] memory _teamMembers,\n    address[] memory _communityMembers,\n    uint256 _toPass\n  ) public {\n    require(_teamMembers.length > 0, \"Need at least one teamMember\");\n    require(_toPass <= (_teamMembers.length + _communityMembers.length), \"Invalid value to pass proposals\");\n\n    // Add members to their respective mappings and increase members count\n    for (uint i = 0; i < _teamMembers.length; i++) {\n      teamMembers[_teamMembers[i]] = true;\n      members++;\n    }\n    for (uint i = 0; i < _communityMembers.length; i++) {\n      communityMembers[_communityMembers[i]] = true;\n      members++;\n    }\n\n    toPass = _toPass;\n    SNX = IERC20(_snx);\n  }\n\n  /**\n   * @notice Called by proposers (team or community) to propose funding for an address.\n   * Emits NewProposal event.\n   * @param _receiver The address to receive funds if proposal executes\n   * @param _amount The amount that the receiver will receive\n   * @return The proposal number for reference\n   */\n  function createProposal(\n    address _receiver,\n    uint256 _amount\n  ) external onlyProposer() returns (uint256) {\n    require(_amount > 0, \"Amount must be greater than 0\");\n    require(_receiver != address(0), \"Receiver cannot be zero address\");\n    uint256 available = SNX.balanceOf(address(this)).sub(locked);\n    require(_amount <= available, \"Unavailable funds on DAO\");\n\n    uint256 _counter = counter; // Pull counter into memory to save gas\n    counter = _counter.add(1);\n\n    proposals[_counter] = Proposal(false, _receiver, _amount, block.timestamp, 1);\n\n    // If a proposal is created by a team member, mark it as approved by the team\n    if (teamMembers[msg.sender]) {\n      proposals[_counter].teamApproval = true;\n    }\n\n    locked = locked.add(_amount);\n    proposals[_counter].voted[msg.sender] = true;\n\n    emit NewProposal(_receiver, _amount, _counter);\n\n    return _counter;\n  }\n\n  /**\n   * @notice Called by proposers (team or community) to vote for a specified proposal.\n   * Emits VoteProposal event.\n   * @param _proposal The proposal number to vote on\n   * @param _vote Boolean to indicate whether or not they approve of the proposal\n   */\n  function voteProposal(uint256 _proposal, bool _vote) external onlyProposer() {\n    require(votingPhase(_proposal), \"Proposal not in voting phase\");\n    require(!proposals[_proposal].voted[msg.sender], \"Already voted\");\n    proposals[_proposal].voted[msg.sender] = true;\n\n    if (_vote) {\n      if (teamMembers[msg.sender]) {\n        proposals[_proposal].teamApproval = true;\n      }\n      proposals[_proposal].approvals = proposals[_proposal].approvals.add(1);\n\n      // Only execute if enough approvals AND the proposal has at least one teamApproval\n      if (proposals[_proposal].approvals >= toPass && proposals[_proposal].teamApproval) {\n        _executeProposal(_proposal);\n      }\n    } else {\n      // Allows a team member to automatically kill a proposal\n      if (teamMembers[msg.sender]) {\n        _deleteProposal(_proposal);\n        // Do not emit VoteProposal if deleting\n        return;\n      }\n    }\n\n    emit VoteProposal(_proposal, msg.sender, _vote);\n  }\n\n  /**\n   * @notice Called by proposers to clean up storage and unlock funds.\n   * Emits DeleteProposal event.\n   * @param _proposal The proposal number to delete\n   */\n  function deleteProposal(uint256 _proposal) external onlyProposer() {\n    require(block.timestamp > proposals[_proposal].createdAt.add(VOTING_PHASE), \"Proposal not expired\");\n    _deleteProposal(_proposal);\n  }\n\n  /**\n   * @notice Called by team members to withdraw extra tokens in the contract\n   * @dev Will not allow withdrawing balances locked in proposals\n   * @param _receiver The address to receive tokens\n   * @param _amount The amount to withdraw\n   */\n  function withdraw(address _receiver, uint256 _amount) external onlyTeamMember () {\n    require(_amount <= withdrawable(), \"Unable to withdraw amount\");\n    assert(SNX.transfer(_receiver, _amount));\n  }\n\n  /**\n   * @notice Allows community members to be added as proposers and voters\n   * @param _member The address of the community member\n   */\n  function addCommunityMember(address _member) external onlyTeamMember() {\n    communityMembers[_member] = true;\n  }\n\n  /**\n   * @notice Allows community members to be removed\n   * @dev The caller can specify an array of proposals to have the member's vote removed\n   * @param _member The address of the community member\n   * @param _proposals The array of proposals to have the member's vote removed from\n   */\n  function removeCommunityMember(address _member, uint256[] calldata _proposals) external onlyTeamMember() {\n    delete communityMembers[_member];\n    for (uint i = 0; i < _proposals.length; i++) {\n      require(proposals[_proposals[i]].voted[_member], \"Member did not vote for proposal\");\n      delete proposals[_proposals[i]].voted[_member];\n      proposals[_proposals[i]].approvals = proposals[_proposals[i]].approvals.sub(1);\n    }\n  }\n\n  /**\n   * @notice Allows team members to be added\n   * @param _member The address of the team member\n   */\n  function addTeamMember(address _member) external onlyTeamMember() {\n    teamMembers[_member] = true;\n  }\n\n  /**\n   * @notice Allows team members to be removed\n   * @param _member The address of the team member\n   */\n  function removeTeamMember(address _member) external onlyTeamMember() {\n    // Prevents the possibility of there being no team members\n    require(msg.sender != _member, \"Cannot remove self\");\n    delete teamMembers[_member];\n  }\n\n  /**\n   * @notice Shows the balance of the contract which can be withdrawn by team members\n   * @return The withdrawable balance\n   */\n  function withdrawable() public view returns (uint256) {\n    return SNX.balanceOf(address(this)).sub(locked);\n  }\n\n  /**\n   * @notice Checks to see whether an address has voted on a proposal\n   * @return Boolean indicating if the address has voted\n   */\n  function voted(address _member, uint256 _proposal) external view returns (bool) {\n    return proposals[_proposal].voted[_member];\n  }\n\n  /**\n   * @notice Check to see whether a proposal is in the voting phase\n   * @param _proposal The proposal number to check\n   * @return Boolean indicating if the proposal is in the voting phase\n   */\n  function votingPhase(uint256 _proposal) public view returns (bool) {\n    uint256 createdAt = proposals[_proposal].createdAt;\n    return createdAt <= block.timestamp.sub(SUBMISSION_PHASE) &&\n      block.timestamp <= createdAt.add(VOTING_PHASE);\n  }\n\n  /**\n   * @dev Private method to delete a proposal\n   * @param _proposal The proposal number to delete\n   */\n  function _deleteProposal(uint256 _proposal) private {\n    locked = locked.sub(proposals[_proposal].amount);\n    delete proposals[_proposal];\n    emit DeleteProposal(_proposal);\n  }\n\n  /**\n   * @dev Private method to execute a proposal\n   * @param _proposal The proposal number to delete\n   */\n  function _executeProposal(uint256 _proposal) private {\n    Proposal memory proposal = proposals[_proposal];\n    delete proposals[_proposal];\n    assert(SNX.transfer(proposal.receiver, proposal.amount));\n    emit ExecuteProposal(proposal.receiver, proposal.amount);\n  }\n\n  /**\n   * @dev Reverts if caller is not a team member\n   */\n  modifier onlyTeamMember() {\n    require(teamMembers[msg.sender], \"Not team member\");\n    _;\n  }\n\n  /**\n   * @dev Reverts if caller is not a proposer (team or community member)\n   */\n  modifier onlyProposer() {\n    require(\n      teamMembers[msg.sender] ||\n      communityMembers[msg.sender],\n      \"Not proposer\"\n    );\n    _;\n  }\n}\n",
  "sourcePath": "/Users/jacobparker/Documents/Work/SNX/snx-grants-dao/contracts/GrantsDAO.sol",
  "compiler": {
    "name": "solc",
    "version": "0.5.13+commit.5b0b510c.Emscripten.clang"
  },
  "schemaVersion": "3.0.21",
  "updatedAt": "2020-01-21T23:58:26.667Z",
  "devdoc": {
    "methods": {
      "addCommunityMember(address)": {
        "params": {
          "_member": "The address of the community member"
        }
      },
      "addTeamMember(address)": {
        "params": {
          "_member": "The address of the team member"
        }
      },
      "constructor": {
        "params": {
          "_communityMembers": "An array of addresses for the community members",
          "_snx": "The address of the SNX token",
          "_teamMembers": "An array of addresses for the team members",
          "_toPass": "The number of votes each proposal is required in order to execute"
        }
      },
      "createProposal(address,uint256)": {
        "params": {
          "_amount": "The amount that the receiver will receive",
          "_receiver": "The address to receive funds if proposal executes"
        },
        "return": "The proposal number for reference"
      },
      "deleteProposal(uint256)": {
        "params": {
          "_proposal": "The proposal number to delete"
        }
      },
      "removeCommunityMember(address,uint256[])": {
        "details": "The caller can specify an array of proposals to have the member's vote removed",
        "params": {
          "_member": "The address of the community member",
          "_proposals": "The array of proposals to have the member's vote removed from"
        }
      },
      "removeTeamMember(address)": {
        "params": {
          "_member": "The address of the team member"
        }
      },
      "voteProposal(uint256,bool)": {
        "params": {
          "_proposal": "The proposal number to vote on",
          "_vote": "Boolean to indicate whether or not they approve of the proposal"
        }
      },
      "voted(address,uint256)": {
        "return": "Boolean indicating if the address has voted"
      },
      "votingPhase(uint256)": {
        "params": {
          "_proposal": "The proposal number to check"
        },
        "return": "Boolean indicating if the proposal is in the voting phase"
      },
      "withdraw(address,uint256)": {
        "details": "Will not allow withdrawing balances locked in proposals",
        "params": {
          "_amount": "The amount to withdraw",
          "_receiver": "The address to receive tokens"
        }
      },
      "withdrawable()": {
        "return": "The withdrawable balance"
      }
    },
    "title": "Synthetix Grants DAO"
  },
  "userdoc": {
    "methods": {
      "addCommunityMember(address)": {
        "notice": "Allows community members to be added as proposers and voters"
      },
      "addTeamMember(address)": {
        "notice": "Allows team members to be added"
      },
      "constructor": "Contract is created with an initial array of team and community members which will be stored in mappings",
      "createProposal(address,uint256)": {
        "notice": "Called by proposers (team or community) to propose funding for an address. Emits NewProposal event."
      },
      "deleteProposal(uint256)": {
        "notice": "Called by proposers to clean up storage and unlock funds. Emits DeleteProposal event."
      },
      "removeCommunityMember(address,uint256[])": {
        "notice": "Allows community members to be removed"
      },
      "removeTeamMember(address)": {
        "notice": "Allows team members to be removed"
      },
      "voteProposal(uint256,bool)": {
        "notice": "Called by proposers (team or community) to vote for a specified proposal. Emits VoteProposal event."
      },
      "voted(address,uint256)": {
        "notice": "Checks to see whether an address has voted on a proposal"
      },
      "votingPhase(uint256)": {
        "notice": "Check to see whether a proposal is in the voting phase"
      },
      "withdraw(address,uint256)": {
        "notice": "Called by team members to withdraw extra tokens in the contract"
      },
      "withdrawable()": {
        "notice": "Shows the balance of the contract which can be withdrawn by team members"
      }
    },
    "notice": "This contract allows for grants to be proposed and voted on by community members and the Synthetix team. All proposals must receive at least one approving vote by a Synthetix member before funds will transfer."
  }
}